{
  "contractName": "LP_lock",
  "abi": [
    {
      "inputs": [
        {
          "internalType": "address",
          "name": "_wallet",
          "type": "address"
        },
        {
          "internalType": "contract IPancakePair",
          "name": "_LP_token_contract",
          "type": "address"
        },
        {
          "internalType": "uint256",
          "name": "_release_time",
          "type": "uint256"
        }
      ],
      "stateMutability": "nonpayable",
      "type": "constructor"
    },
    {
      "anonymous": false,
      "inputs": [
        {
          "indexed": true,
          "internalType": "address",
          "name": "previousOwner",
          "type": "address"
        },
        {
          "indexed": true,
          "internalType": "address",
          "name": "newOwner",
          "type": "address"
        }
      ],
      "name": "OwnershipTransferred",
      "type": "event"
    },
    {
      "anonymous": false,
      "inputs": [
        {
          "indexed": false,
          "internalType": "address",
          "name": "to",
          "type": "address"
        },
        {
          "indexed": false,
          "internalType": "uint256",
          "name": "bal",
          "type": "uint256"
        }
      ],
      "name": "withdrawed",
      "type": "event"
    },
    {
      "inputs": [],
      "name": "LP_token_contract",
      "outputs": [
        {
          "internalType": "contract IPancakePair",
          "name": "",
          "type": "address"
        }
      ],
      "stateMutability": "view",
      "type": "function"
    },
    {
      "inputs": [],
      "name": "owner",
      "outputs": [
        {
          "internalType": "address",
          "name": "",
          "type": "address"
        }
      ],
      "stateMutability": "view",
      "type": "function"
    },
    {
      "inputs": [],
      "name": "release_time",
      "outputs": [
        {
          "internalType": "uint256",
          "name": "",
          "type": "uint256"
        }
      ],
      "stateMutability": "view",
      "type": "function"
    },
    {
      "inputs": [],
      "name": "renounceOwnership",
      "outputs": [],
      "stateMutability": "nonpayable",
      "type": "function"
    },
    {
      "inputs": [
        {
          "internalType": "address",
          "name": "newOwner",
          "type": "address"
        }
      ],
      "name": "transferOwnership",
      "outputs": [],
      "stateMutability": "nonpayable",
      "type": "function"
    },
    {
      "inputs": [],
      "name": "gimme_my_liquidity",
      "outputs": [],
      "stateMutability": "nonpayable",
      "type": "function"
    },
    {
      "inputs": [
        {
          "internalType": "address",
          "name": "new_wallet",
          "type": "address"
        }
      ],
      "name": "migrate_wallet",
      "outputs": [],
      "stateMutability": "nonpayable",
      "type": "function"
    },
    {
      "inputs": [],
      "name": "get_balance",
      "outputs": [
        {
          "internalType": "uint256",
          "name": "",
          "type": "uint256"
        }
      ],
      "stateMutability": "view",
      "type": "function"
    }
  ],
  "bytecode": "0x60806040523480156200001157600080fd5b50604051620010cf380380620010cf83398181016040528101906200003791906200028e565b6000620000496200024160201b60201c565b9050806000806101000a81548173ffffffffffffffffffffffffffffffffffffffff021916908373ffffffffffffffffffffffffffffffffffffffff1602179055508073ffffffffffffffffffffffffffffffffffffffff16600073ffffffffffffffffffffffffffffffffffffffff167f8be0079c531659141344cd1fd0a4f28419497f9722a3daafe3b4186f6b6457e060405160405180910390a35060008273ffffffffffffffffffffffffffffffffffffffff166318160ddd6040518163ffffffff1660e01b815260040160206040518083038186803b1580156200013057600080fd5b505afa15801562000145573d6000803e3d6000fd5b505050506040513d601f19601f820116820180604052508101906200016b9190620002e4565b1415620001af576040517f08c379a0000000000000000000000000000000000000000000000000000000008152600401620001a69062000337565b60405180910390fd5b82600160006101000a81548173ffffffffffffffffffffffffffffffffffffffff021916908373ffffffffffffffffffffffffffffffffffffffff16021790555081600260006101000a81548173ffffffffffffffffffffffffffffffffffffffff021916908373ffffffffffffffffffffffffffffffffffffffff1602179055508060038190555050505062000459565b600033905090565b6000815190506200025a816200040b565b92915050565b600081519050620002718162000425565b92915050565b60008151905062000288816200043f565b92915050565b600080600060608486031215620002a457600080fd5b6000620002b48682870162000249565b9350506020620002c78682870162000260565b9250506040620002da8682870162000277565b9150509250925092565b600060208284031215620002f757600080fd5b6000620003078482850162000277565b91505092915050565b60006200031f60258362000359565b91506200032c82620003bc565b604082019050919050565b60006020820190508181036000830152620003528162000310565b9050919050565b600082825260208201905092915050565b6000620003778262000392565b9050919050565b60006200038b826200036a565b9050919050565b600073ffffffffffffffffffffffffffffffffffffffff82169050919050565b6000819050919050565b7f50726f766964652076616c6964206e6f6e2d30204c5020746f6b656e20636f6e60008201527f7472616374000000000000000000000000000000000000000000000000000000602082015250565b62000416816200036a565b81146200042257600080fd5b50565b62000430816200037e565b81146200043c57600080fd5b50565b6200044a81620003b2565b81146200045657600080fd5b50565b610c6680620004696000396000f3fe608060405234801561001057600080fd5b50600436106100885760003560e01c8063c1cfb99a1161005b578063c1cfb99a146100dd578063d0dba233146100fb578063f2877f7814610117578063f2fde38b1461013557610088565b8063715018a61461008d578063805f6dda146100975780638da5cb5b146100b5578063bb53bcb5146100d3575b600080fd5b610095610151565b005b61009f61028b565b6040516100ac9190610ab2565b60405180910390f35b6100bd610291565b6040516100ca91906109f3565b60405180910390f35b6100db6102ba565b005b6100e561055a565b6040516100f29190610ab2565b60405180910390f35b610115600480360381019061011091906108e2565b61060c565b005b61011f6106cc565b60405161012c9190610a37565b60405180910390f35b61014f600480360381019061014a91906108e2565b6106f2565b005b61015961089b565b73ffffffffffffffffffffffffffffffffffffffff16610177610291565b73ffffffffffffffffffffffffffffffffffffffff16146101cd576040517f08c379a00000000000000000000000000000000000000000000000000000000081526004016101c490610a72565b60405180910390fd5b600073ffffffffffffffffffffffffffffffffffffffff1660008054906101000a900473ffffffffffffffffffffffffffffffffffffffff1673ffffffffffffffffffffffffffffffffffffffff167f8be0079c531659141344cd1fd0a4f28419497f9722a3daafe3b4186f6b6457e060405160405180910390a360008060006101000a81548173ffffffffffffffffffffffffffffffffffffffff021916908373ffffffffffffffffffffffffffffffffffffffff160217905550565b60035481565b60008060009054906101000a900473ffffffffffffffffffffffffffffffffffffffff16905090565b6102c261089b565b73ffffffffffffffffffffffffffffffffffffffff166102e0610291565b73ffffffffffffffffffffffffffffffffffffffff1614610336576040517f08c379a000000000000000000000000000000000000000000000000000000000815260040161032d90610a72565b60405180910390fd5b42600354111561037b576040517f08c379a000000000000000000000000000000000000000000000000000000000815260040161037290610a92565b60405180910390fd5b6000600260009054906101000a900473ffffffffffffffffffffffffffffffffffffffff1673ffffffffffffffffffffffffffffffffffffffff166370a08231306040518263ffffffff1660e01b81526004016103d891906109f3565b60206040518083038186803b1580156103f057600080fd5b505afa158015610404573d6000803e3d6000fd5b505050506040513d601f19601f820116820180604052508101906104289190610934565b9050600260009054906101000a900473ffffffffffffffffffffffffffffffffffffffff1673ffffffffffffffffffffffffffffffffffffffff1663a9059cbb600160009054906101000a900473ffffffffffffffffffffffffffffffffffffffff16836040518363ffffffff1660e01b81526004016104a9929190610a0e565b602060405180830381600087803b1580156104c357600080fd5b505af11580156104d7573d6000803e3d6000fd5b505050506040513d601f19601f820116820180604052508101906104fb919061090b565b507f93617e8c39b86ab5622f0c8bf0da4cf11f50ec322428cbc01b52f9ac1589d2b9600160009054906101000a900473ffffffffffffffffffffffffffffffffffffffff168260405161054f929190610a0e565b60405180910390a150565b6000600260009054906101000a900473ffffffffffffffffffffffffffffffffffffffff1673ffffffffffffffffffffffffffffffffffffffff166370a08231306040518263ffffffff1660e01b81526004016105b791906109f3565b60206040518083038186803b1580156105cf57600080fd5b505afa1580156105e3573d6000803e3d6000fd5b505050506040513d601f19601f820116820180604052508101906106079190610934565b905090565b61061461089b565b73ffffffffffffffffffffffffffffffffffffffff16610632610291565b73ffffffffffffffffffffffffffffffffffffffff1614610688576040517f08c379a000000000000000000000000000000000000000000000000000000000815260040161067f90610a72565b60405180910390fd5b80600160006101000a81548173ffffffffffffffffffffffffffffffffffffffff021916908373ffffffffffffffffffffffffffffffffffffffff16021790555050565b600260009054906101000a900473ffffffffffffffffffffffffffffffffffffffff1681565b6106fa61089b565b73ffffffffffffffffffffffffffffffffffffffff16610718610291565b73ffffffffffffffffffffffffffffffffffffffff161461076e576040517f08c379a000000000000000000000000000000000000000000000000000000000815260040161076590610a72565b60405180910390fd5b600073ffffffffffffffffffffffffffffffffffffffff168173ffffffffffffffffffffffffffffffffffffffff1614156107de576040517f08c379a00000000000000000000000000000000000000000000000000000000081526004016107d590610a52565b60405180910390fd5b8073ffffffffffffffffffffffffffffffffffffffff1660008054906101000a900473ffffffffffffffffffffffffffffffffffffffff1673ffffffffffffffffffffffffffffffffffffffff167f8be0079c531659141344cd1fd0a4f28419497f9722a3daafe3b4186f6b6457e060405160405180910390a3806000806101000a81548173ffffffffffffffffffffffffffffffffffffffff021916908373ffffffffffffffffffffffffffffffffffffffff16021790555050565b600033905090565b6000813590506108b281610beb565b92915050565b6000815190506108c781610c02565b92915050565b6000815190506108dc81610c19565b92915050565b6000602082840312156108f457600080fd5b6000610902848285016108a3565b91505092915050565b60006020828403121561091d57600080fd5b600061092b848285016108b8565b91505092915050565b60006020828403121561094657600080fd5b6000610954848285016108cd565b91505092915050565b61096681610ade565b82525050565b61097581610b26565b82525050565b6000610988602683610acd565b915061099382610b4a565b604082019050919050565b60006109ab602083610acd565b91506109b682610b99565b602082019050919050565b60006109ce600f83610acd565b91506109d982610bc2565b602082019050919050565b6109ed81610b1c565b82525050565b6000602082019050610a08600083018461095d565b92915050565b6000604082019050610a23600083018561095d565b610a3060208301846109e4565b9392505050565b6000602082019050610a4c600083018461096c565b92915050565b60006020820190508181036000830152610a6b8161097b565b9050919050565b60006020820190508181036000830152610a8b8161099e565b9050919050565b60006020820190508181036000830152610aab816109c1565b9050919050565b6000602082019050610ac760008301846109e4565b92915050565b600082825260208201905092915050565b6000610ae982610afc565b9050919050565b60008115159050919050565b600073ffffffffffffffffffffffffffffffffffffffff82169050919050565b6000819050919050565b6000610b3182610b38565b9050919050565b6000610b4382610afc565b9050919050565b7f4f776e61626c653a206e6577206f776e657220697320746865207a65726f206160008201527f6464726573730000000000000000000000000000000000000000000000000000602082015250565b7f4f776e61626c653a2063616c6c6572206973206e6f7420746865206f776e6572600082015250565b7f4c50207374696c6c206c6f636b65640000000000000000000000000000000000600082015250565b610bf481610ade565b8114610bff57600080fd5b50565b610c0b81610af0565b8114610c1657600080fd5b50565b610c2281610b1c565b8114610c2d57600080fd5b5056fea26469706673582212207823da4f6e49ece1c1d3a1af8bd1414a4c9c432834f37392905fefd49b1195ef64736f6c63430008040033",
  "immutableReferences": {},
  "source": "pragma solidity ^0.8.0;\n\ninterface IPancakePair {\n    event Approval(address indexed owner, address indexed spender, uint value);\n    event Transfer(address indexed from, address indexed to, uint value);\n\n    function name() external pure returns (string memory);\n    function symbol() external pure returns (string memory);\n    function decimals() external pure returns (uint8);\n    function totalSupply() external view returns (uint);\n    function balanceOf(address owner) external view returns (uint);\n    function allowance(address owner, address spender) external view returns (uint);\n\n    function approve(address spender, uint value) external returns (bool);\n    function transfer(address to, uint value) external returns (bool);\n    function transferFrom(address from, address to, uint value) external returns (bool);\n\n    function DOMAIN_SEPARATOR() external view returns (bytes32);\n    function PERMIT_TYPEHASH() external pure returns (bytes32);\n    function nonces(address owner) external view returns (uint);\n\n    function permit(address owner, address spender, uint value, uint deadline, uint8 v, bytes32 r, bytes32 s) external;\n\n    event Mint(address indexed sender, uint amount0, uint amount1);\n    event Burn(address indexed sender, uint amount0, uint amount1, address indexed to);\n    event Swap(\n        address indexed sender,\n        uint amount0In,\n        uint amount1In,\n        uint amount0Out,\n        uint amount1Out,\n        address indexed to\n    );\n    event Sync(uint112 reserve0, uint112 reserve1);\n\n    function MINIMUM_LIQUIDITY() external pure returns (uint);\n    function factory() external view returns (address);\n    function token0() external view returns (address);\n    function token1() external view returns (address);\n    function getReserves() external view returns (uint112 reserve0, uint112 reserve1, uint32 blockTimestampLast);\n    function price0CumulativeLast() external view returns (uint);\n    function price1CumulativeLast() external view returns (uint);\n    function kLast() external view returns (uint);\n\n    function mint(address to) external returns (uint liquidity);\n    function burn(address to) external returns (uint amount0, uint amount1);\n    function swap(uint amount0Out, uint amount1Out, address to, bytes calldata data) external;\n    function skim(address to) external;\n    function sync() external;\n\n    function initialize(address, address) external;\n}\n\n\n\n\n/*\n * @dev Provides information about the current execution context, including the\n * sender of the transaction and its data. While these are generally available\n * via msg.sender and msg.data, they should not be accessed in such a direct\n * manner, since when dealing with meta-transactions the account sending and\n * paying for execution may not be the actual sender (as far as an application\n * is concerned).\n *\n * This contract is only required for intermediate, library-like contracts.\n */\nabstract contract Context {\n    function _msgSender() internal view virtual returns (address) {\n        return msg.sender;\n    }\n\n    function _msgData() internal view virtual returns (bytes calldata) {\n        this; // silence state mutability warning without generating bytecode - see https://github.com/ethereum/solidity/issues/2691\n        return msg.data;\n    }\n}\n\n\n\nabstract contract Ownable is Context {\n    address private _owner;\n\n    event OwnershipTransferred(address indexed previousOwner, address indexed newOwner);\n\n    /**\n     * @dev Initializes the contract setting the deployer as the initial owner.\n     */\n    constructor () {\n        address msgSender = _msgSender();\n        _owner = msgSender;\n        emit OwnershipTransferred(address(0), msgSender);\n    }\n\n    /**\n     * @dev Returns the address of the current owner.\n     */\n    function owner() public view virtual returns (address) {\n        return _owner;\n    }\n\n    /**\n     * @dev Throws if called by any account other than the owner.\n     */\n    modifier onlyOwner() {\n        require(owner() == _msgSender(), \"Ownable: caller is not the owner\");\n        _;\n    }\n\n    /**\n     * @dev Leaves the contract without owner. It will not be possible to call\n     * `onlyOwner` functions anymore. Can only be called by the current owner.\n     *\n     * NOTE: Renouncing ownership will leave the contract without an owner,\n     * thereby removing any functionality that is only available to the owner.\n     */\n    function renounceOwnership() public virtual onlyOwner {\n        emit OwnershipTransferred(_owner, address(0));\n        _owner = address(0);\n    }\n\n    /**\n     * @dev Transfers ownership of the contract to a new account (`newOwner`).\n     * Can only be called by the current owner.\n     */\n    function transferOwnership(address newOwner) public virtual onlyOwner {\n        require(newOwner != address(0), \"Ownable: new owner is the zero address\");\n        emit OwnershipTransferred(_owner, newOwner);\n        _owner = newOwner;\n    }\n}\n\n\n\n\n/*\n* Locking Pancakeswap token until release_time (expressed in Unix epoch time)\n* See https://www.unixtimestamp.com/ for conversion\n* + wallet migration possibilities (without locking removal)\n*/\n\ncontract LP_lock is Ownable {\n\n    address wallet;\n    IPancakePair public LP_token_contract;\n    uint256 public release_time;\n\n    event withdrawed (address to, uint256 bal);\n\n    constructor (address _wallet, IPancakePair _LP_token_contract, uint256 _release_time) {\n        require(_LP_token_contract.totalSupply() != 0, \"Provide valid non-0 LP token contract\"); //provide sanity test for degens\n        wallet = _wallet;\n        LP_token_contract = _LP_token_contract;\n        release_time = _release_time;\n    }\n\n    /*\n    * unlock, or try to. Will revert if too soon (that's what she said)\n    */\n    function gimme_my_liquidity () public onlyOwner {\n        require(release_time <= block.timestamp, \"LP still locked\");\n        uint256 balance = LP_token_contract.balanceOf(address(this));\n        LP_token_contract.transfer(wallet, balance);\n        emit withdrawed(wallet, balance);\n    }\n\n    function migrate_wallet (address new_wallet) public onlyOwner {\n        wallet = new_wallet;\n    }\n\n    function get_balance() public view returns (uint256) {\n        return LP_token_contract.balanceOf(address(this));\n    }\n\n}\n",
  "sourcePath": "/home/drgorilla/Documents/LP_lock/contracts/LP_lock.sol",
  "compiler": {
    "name": "solc",
    "version": "0.8.4+commit.c7e474f2.Emscripten.clang"
  },
  "schemaVersion": "3.3.4",
  "updatedAt": "2021-05-03T16:30:39.466Z",
  "devdoc": {
    "kind": "dev",
    "methods": {
      "owner()": {
        "details": "Returns the address of the current owner."
      },
      "renounceOwnership()": {
        "details": "Leaves the contract without owner. It will not be possible to call `onlyOwner` functions anymore. Can only be called by the current owner. NOTE: Renouncing ownership will leave the contract without an owner, thereby removing any functionality that is only available to the owner."
      },
      "transferOwnership(address)": {
        "details": "Transfers ownership of the contract to a new account (`newOwner`). Can only be called by the current owner."
      }
    },
    "version": 1
  },
  "userdoc": {
    "kind": "user",
    "methods": {},
    "version": 1
  }
}